:100000000C94C7040C94E4040C94E4040C940724AA
:100010000C94E4040C94E4040C94E4040C94E404C0
:100020000C94E4040C94E4040C94A52A0C94792B0D
:100030000C9401260C94E4040C94E4040C94E40461
:100040000C94E4040C94E4040C94E4040C94E40490
:100050000C94E4040C94A3260C94E4040C94E4049F
:100060000C94E4040C94E4040C94E4040C94E40470
:100070000C94E4040C94E4040C94E4040C94E40460
:100080000C94E4040C94E4040C94E4040C94E40450
:100090000C94E4040C94E4040C94E4040C94E40440
:1000A0000C94E4040C94E4040C94E40429001E0071
:1000B0001F002000210022002B0014001A0008005D
:1000C00015001700E00004001600070009000A00F0
:1000D000E1001D001B000600190005000000E20001
:1000E000E30001512C002F003500270026002500D9
:1000F000240023002D00130012000C0018001C0027
:10010000340033000F000E000D000B00E500380036
:1001100037003600100011000000E7002A000251ED
:100120002800300001000100010001000100010071
:100130003A003B003C003D003E003F0035001E02FF
:100140001F02200221022202010001000100010021
:100150000100010000000100010001000100010098
:100160000100010001000100010001004500440000
:1001700043004200410040003502270226022502CA
:1001800024022302310230022F022E022D0200002F
:100190000000010001000100010001000100010058
:1001A000010001000100010035001E001F002000B9
:1001B000210022003A003B003C003D003E003F0091
:1001C000400041004200430044004500000001009F
:1001D00001000100010001004C00010001000100CC
:1001E0000100010001002700260025002400230053
:1001F00000004F005200510050000000310030005C
:100200002F002E002D002E02000001000100010031
:1002100001000100C35CC45C00000000000000009D
:1002200000000000000000000000000000000000CE
:1002300000000000000000000000000000000000BE
:1002400000000000000001000100010001000000AA
:10025000000000000000000000000000000000009E
:10026000000000000000000000000000000000008E
:10027000000000000000000000000000000000007E
:1002800000000100010001000100000064321400C0
:100290000101010101010101010202020202020247
:1002A000020203030303030303030404040404041A
:1002B00004050505050506060606060707070707E0
:1002C00008080808090909090A0A0A0B0B0B0C0C93
:1002D0000C0D0D0D0E0E0E0F0F0F1010111111122F
:1002E0001213131414151516161717181819191AAE
:1002F0001A1B1B1C1D1D1E1E1F2020212222232411
:1003000024252626272829292A2B2C2D2D2E2F304F
:10031000313232333435363738393A3B3C3D3E3F63
:10032000404142434445464748494A4C4D4E4F5050
:10033000515354555658595A5B5D5E5F616264650E
:100340006668696B6C6D6F7072737577787A7B7D98
:100350007E8082838587888A8C8E8F9193959698EC
:100360009A9C9EA0A2A3A5A7A9ABADAFB1B3B5B708
:10037000BABCBEC0C2C4C6C9CBCDCFD1D4D6D8DBDF
:10038000DDDFE2E4E7E9EBEEF0F3F5F8FAFDFF007C
:10039000AE00AF00DA0281FFD9F1DB20A4A62EAFB8
:1003A00000A0C000A1C800AED580A81FD300408D1A
:1003B0001420000000000000003E5B4F5B3E003E4A
:1003C0006B4F6B3E001C3E7C3E1C00183C7E3C1874
:1003D000001C577D571C001C5E7F5E1C0000183CF3
:1003E000180000FFE7C3E7FF00001824180000FF13
:1003F000E7DBE7FF0030483A060E00262979292678
:1004000000407F05050700407F05253F005A3CE777
:100410003C5A007F3E1C1C0800081C1C3E7F001438
:10042000227F2214005F5F005F5F0006097F017F6B
:1004300000006689956A0060606060600094A2FFB9
:10044000A2940008047E04080010207E20100008FA
:10045000082A1C0800081C2A0808001E101010108A
:10046000000C1E0C1E0C0030383E383000060E3ECC
:100470000E060000000000000000005F0000000009
:100480000700070000147F147F1400242A7F2A121B
:100490000023130864620036495620500000080704
:1004A000030000001C224100000041221C00002A21
:1004B0001C7F1C2A0008083E0808000080703000DD
:1004C000000808080808000000606000002010080C
:1004D0000402003E5149453E0000427F4000007248
:1004E00049494946002141494D33001814127F10F3
:1004F000002745454539003C4A4949310041211111
:10050000090700364949493600464949291E000075
:1005100000140000000040340000000008142241D4
:10052000001414141414000041221408000201598C
:100530000906003E415D594E007C1211127C007F7D
:1005400049494936003E41414122007F4141413EF7
:10055000007F49494941007F09090901003E4141A5
:100560005173007F0808087F0000417F4100002090
:1005700040413F01007F08142241007F404040403D
:10058000007F021C027F007F0408107F003E414173
:10059000413E007F09090906003E4151215E007F6E
:1005A000091929460026494949320003017F010300
:1005B000003F4040403F001F2040201F003F403888
:1005C000403F0063140814630003047804030061CF
:1005D00059494D4300007F41414100020408102069
:1005E00000004141417F00040201020400404040FC
:1005F0004040000003070800002054547840007F6A
:100600002844443800384444442800384444287F6F
:100610000038545454180000087E0902001824249D
:100620001C78007F080404780000447D400000200E
:1006300040403D00007F102844000000417F400002
:10064000007C04780478007C080404780038444472
:100650004438007C1824241800182424187C007CBA
:10066000080404080048545454240004043F44245B
:10067000003C4040207C001C2040201C003C4030BE
:10068000403C004428102844004C9090907C00444A
:1006900064544C440000083641000000007700001C
:1006A000000041360800000201020402003C26233B
:1006B000263C0000000000008080808000000000D8
:1006C0000080E070180C1830E080000010F89010E6
:1006D00030783010B8FC3810000000000000F8FC42
:1006E000F8000000000000000000000000001C9C5A
:1006F0001C00000000F8FCF80000000000001CFCDA
:10070000F8C000000000000080E0F87C1C00000041
:10071000F0FCFCFC1C1C1C1C1C1C1C1C0000000015
:100720000000C0F0F8381C1C1C1C1C1C3CF8F0E03D
:1007300000E0F0F0F0E0ECEEF7F37020007C7C7C61
:100740007E007E7E7E7F7F7F000080C0E07E5B4FEC
:100750005BFEC00000C000DCD7DEDEDED7DC00C000
:100760000000000000000000000000000000000089
:1007700000000000000000000FBCE0818181838345
:1007800082870C183060C000001FFE90B9FFBB913B
:10079000983C1811133F1100000000000000FFFFFB
:1007A000FF00000000000000000000000000FFFF4C
:1007B000FF00000000FFFFFF00000000000000003D
:1007C000030F7FF8E080F0FC3F0F01000000000005
:1007D0003F3F3F1C1C1C1C1C3C78F8F0E0800000D4
:1007E0000000C3E7FF7E3C3878787070F8FFDF8741
:1007F000000F1F3F7F7F7F7F7F3F1E0C001F1F1F4B
:100800003F003F3F3F7F7F7F00307B7F783020205D
:1008100030787F3B0003000F7F0F0F0F7F0F000327
:1008200000000000000000000000000000000000C8
:10083000000000183C24666341C181808080808074
:100840008081C14162386C4CC6818180808080800B
:1008500081C14362361C1800000000000000FFFF49
:10086000FFC0C0C0C0C0C0C0C0C0800000007FFFCB
:100870007F000000007FFFFFC080000000E0E0C0BC
:10088000C0C0E0F97F1F070000000000000000006A
:1008900070F0E0E0C0C0C0C0E0F0F87F3F0F0000A3
:1008A000000F3F7FF9E0E0C0C0C0C0C0E0F97F3F6B
:1008B0001F00000000000000000000000000000019
:1008C0000000000000000000000000000000000028
:1008D0000000000000000000000000000000000018
:1008E0000000000000000000000000000000000008
:1008F0000000000E034C0069006C007900350038E0
:1009000000000010036C0069006C00690075006D48
:100910000073000000040309040902220001010021
:10092000A0FA0904000001030101000921110100DE
:1009300001224000070581030800011201000200A6
:10094000000008D8042DEB00010102000105010997
:1009500006A101050719E029E7150025019508758D
:100960000181029501750881010507190029FF150C
:100970000026FF0095067508810005081901290564
:10098000950575019102950175039101C00011242F
:100990001FBECFEFDAE0DEBFCDBF12E0A0E0B1E0D6
:1009A000E0ECF1E602C005900D92A233B107D9F751
:1009B00025E0A2E3B2E001C01D92AC3EB207E1F730
:1009C0000E94FE170C94C8300C94000080918D0298
:1009D00090918E02A0918F02B09190028430910587
:1009E000A105B105E1F128F50097A105B10571F167
:1009F0006BE971E082309105A105B10549F1BF9322
:100A0000AF939F938F9386EB91E09F938F931F9269
:100A100088E18F9386E793E09F938F930E94AA2D9E
:100A20008DB79EB70A960FB6F8949EBF0FBE8DBFC6
:100A300013C088309105A105B10529F08E309105CC
:100A4000A105B105E1F668EA71E002C06FE771E067
:100A500086E793E00E94A32D86E793E008956EE871
:100A600071E0F6CF80E091E00895CF93C0E28C333F
:100A7000910520F4FC01E852FE4FC0811F92CF93F4
:100A80009F938F93FB0180811F928F9381811F928F
:100A90008F9387EC91E09F938F931F9288E18F93C0
:100AA0008BE492E09F938F930E94AA2D8DB79EB7FF
:100AB0000E960FB6F8949EBF0FBE8DBF8091340284
:100AC00090913502449761F41092350210923402ED
:100AD000E6E3F2E080E2819392E0EA34F907D9F7A5
:100AE0008091340290913502FC01EA5CFD4FC08395
:100AF00001969093350280933402CF9108958BE450
:100B000092E0089586E392E008950F9303E022E0D7
:100B100041E00E9409060F910895CF93C82F0E94CB
:100B20006515811101C0C2E08C2FCF9108950E94FC
:100B30006515882389F00E94E60460E00E94BB1ED0
:100B40000E947F0560E00E94BB1E0E94820560E05B
:100B50000E94BB1E80E008950E94320560E00E9462
:100B60009F1EF8CFFB01228121110E94350581E0F3
:100B7000089581E008950C94B20508950C94BD0584
:100B80001F93CF93DF9300D000D00F92CDB7DEB785
:100B900049835A836B833091640289819A81311130
:100BA0001DC06623B9F02223A9F00E94AE0B182FB6
:100BB000682F89819A810E94570B69817A81812FE0
:100BC0000F900F900F900F900F90DF91CF911F918A
:100BD0000C943F120E94850B182FEFCF0E94AE0B92
:100BE00069817A81EDCFFC01262F4081518162819C
:100BF000738184810C94C00581E00895CF93DF93C5
:100C0000EC0160E00E94F305BE01DF91CF910C94EE
:100C1000BE058F929F92AF92BF92CF92DF92EF92DA
:100C2000FF920F931F936B017C0181E090E0A0E0A5
:100C3000B0E04C015D0104C0880C991CAA1CBB1CCF
:100C40004A95D2F7B501A4014C015D0104C0880C9E
:100C5000991CAA1CBB1C2A95D2F7482959296A2934
:100C60007B2904C0880F991FAA1FBB1F0A95D2F7C2
:100C70008A019B010C211D212E213F2104171507FC
:100C80002607370789F48C299D29AE29BF29BC0185
:100C9000CD011F910F91FF90EF90DF90CF90BF900B
:100CA000AF909F908F90089580959095A095B09566
:100CB0008C219D21AE21BF21EACF0C94A3130C946B
:100CC000A61308950E94060A0E9461062FEF84E38E
:100CD0009CE0215080409040E1F700C000000C945F
:100CE000C7260F931F93CF93DF938C0161E00E947F
:100CF000F305EC01B8010E94BB058823D9F1B801C6
:100D0000CE010E9406228823A9F1B801CE010E94DB
:100D10003320882379F1B801CE010E947021882305
:100D200049F1B801CE010E945A1C882319F1F8013B
:100D30008281882361F0CB35FDE5DF0721F170F476
:100D4000C115ECE5DE07A1F0CF3DDC45C9F0C801D7
:100D5000DF91CF911F910F910C94B905CC358DE5A2
:100D6000D807A1F0CD35DD4591F70E94D10FEFCF27
:100D70000E94620680E0DF91CF911F910F9108954C
:100D80000E948510F7CF0E94DA0FE1CF0E94DD0F9D
:100D9000DECF0E94E6250E94E7060E949A1A0C9474
:100DA000DC1F0E94EA060E94921B0C94EA2508951B
:100DB0000C94D70681E008950C94DA060895CF9339
:100DC000C82F0E94D8068C2FCF910C94DC0680E0AF
:100DD0000C94DF060E942D250C94DF060E942D2521
:100DE00090916302981721F0809363020C94DF06C0
:100DF0000895CF93DF93CDB7DEB72B970FB6F89456
:100E0000DEBF0FBECDBF4F83588769877A878B8738
:100E100061110E941F0F1E821D8285E0FE01379620
:100E2000DE01119601900D928A95E1F78C819D81EA
:100E3000892B89F449815A816B817C818D819E81C6
:100E40000E94400E2B960FB6F894DEBF0FBECDBFAA
:100E5000DF91CF91089589819A8189238F3F51F342
:100E6000CE0101960E94FC058111E4CFEBCFFC017D
:100E7000808191810C94F00BCF93C82F882329F1A6
:100E80008CEF8C0F813AA0F46C2F809142019091ED
:100E900043010E948925882329F08C2F0E94E10EAE
:100EA0000E943F0F8C2F0E94DA0ECF910C943F0FBF
:100EB00080E28C0F883048F4C77081E001C0880F51
:100EC000CA95EAF70E94020FF0CFCF9108958823C8
:100ED00029F19CEF980F913A20F40E94E10E0C94B6
:100EE0003F0F90E2980F983050F4877091E001C066
:100EF000990F8A95EAF7892F0E94080FF0CF9BE59A
:100F0000980F933020F490E080E00C944B25885AA1
:100F1000873120F490E080E00C94612508951F93C0
:100F2000CF93DF93182FEB010E943C07209731F4F9
:100F3000812FDF91CF911F910C9467078FE99FE07C
:100F40000197F1F700C000002197F0CF70E060E05A
:100F5000893311F460E570E00C948F07882321F049
:100F60000E94020F0C943F0F0895882321F00E94E5
:100F7000080F0C943F0F0895BF92CF92DF92EF922B
:100F8000FF920F931F93CF93DF936C01D62FC72F40
:100F9000FC011281F580F2949FE0F9220E94F80E84
:100FA000E82E8823B9F0E12E1123A1F08C2F807F49
:100FB000803421F080E28D0F8830D0F0809193034F
:100FC00082FD16C082E00E94A00F0E94F80E91E000
:100FD000E82EE926BC2EB2948FE0B822FBE0FB1588
:100FE00008F468C0EB2DF0E0E653FF4C0C94712D33
:100FF000E12CF0CF0C2F0F70C07F11F00295007F15
:10100000112399F0002359F080E28D0F883010F001
:10101000D11107C0802F0E94020F0E943F0F8D2F19
:1010200041C0802F0E94120FF8CF8D2F0E946707BA
:10103000002309F43FC080E28D0F883010F0D111F9
:1010400004C0802F0E94080F03C0802F0E94180F39
:101050000E943F0F2FC00C2F0F70C07FC03211F0C5
:101060000295007FDD2381F0D13009F469C011239E
:1010700009F473C0FF2009F469C0F601858180FF7F
:10108000CECF8F70858362C08091930382FF38C07A
:10109000112359F0002329F0802F0E94020F0E9493
:1010A0003F0F80E00E943C0705C080E00E94670778
:1010B0000111C7CFEB2DE850FF0B349720F40E94AD
:1010C0002D250E94DF06EE2009F44BC10E94F40E8C
:1010D00080FD47C1F60112820E94EE0E0E94BB0AFB
:1010E000C6010E94D2090E94EE0EDF91CF911F919E
:1010F0000F91FF90EF90DF90CF90BF900C94DC0A9F
:10110000112389F0F11006C00E94220F802B0E944B
:10111000AE07D0CF21E0F212F7CF0E94220F802B32
:101120000E94280FC7CFF11006C00E94350F802FF4
:101130000E94B507BFCF31E0F31609F4BBCFF5CF5E
:10114000112331F085E08F1508F4B4CF802FDFCF65
:1011500094E09F1508F4AECFEACFFF2041F3D933D6
:1011600049F4FFEF27EE33E0F15020403040E1F743
:1011700000C000008D2F0E9467079CCF8C2F8370CA
:1011800009F041C0111196CF4D2F429546954770F9
:10119000440F440F0D2F0F7010E030E020E0042EBC
:1011A00004C0000F111F221F331F0A94D2F760E002
:1011B00070E0CB01D4FF0FC06FE070E080E090E002
:1011C00004C0660F771F881F991F4A95D2F7609554
:1011D000709580959095C695C695C370602B712BC0
:1011E000822B932BC23049F058F4C13019F00E9481
:1011F0006F0A60CF0E945D0A5DCF0E94810A5ACFBC
:101200000E945B0A57CF8695112311F08C2F8170B5
:10121000882309F44FCF4D2F429546954770440FD0
:10122000440F0D2F0F7010E030E020E0042E04C0BA
:10123000000F111F221F331F0A94D2F760E070E0E5
:10124000CB01D4FF0FC06FE070E080E090E004C0FD
:10125000660F771F881F991F4A95D2F76095709582
:1012600080959095C695C695C370602B712B822B87
:10127000932BC23049F058F4C13019F00E94320B60
:1012800019CF0E94200B16CF0E94440B13CF0E944F
:10129000950A10CFCF70112329F08C2F0E94BB0A22
:1012A0008D2F35CF8D2F0E94B5078C2F0E94DC0A21
:1012B00001CFD23F51F160F4D03FB9F0D13F81F07E
:1012C000112309F449C0F110AACE8C2F8F7121C0CF
:1012D000D33F11F1D43FA1F78091930382FF26C041
:1012E0008C2F8F71112311F314C0112349F084E066
:1012F0008F1508F4DFCE8C2F8F710E94FF0ADACE93
:1013000095E09F1508F4D6CEF6CF8C2F8F71111172
:10131000CDCF0E94BB0ACECE112329F08C2F8F7126
:101320000E94A60AC7CE0E94A10AC4CE112349F08A
:10133000CF718C2F0E94BB0A63E08C2F0E94850F17
:10134000B9CE81E00E94A00FE1E0EF1508F0B2CE27
:1013500082E00E94A00FAECEF11001CF8C2F8F71D2
:10136000A5CFDF91CF911F910F91FF90EF90DF906C
:10137000CF90BF9008950F931F93CF93DF93EC010D
:10138000688179818A810E94FA0B8C010E94560B38
:101390000E945A0AB801CE01DF91CF911F910F919F
:1013A0000C94BC07CF93DF93EC018B819C81892B3C
:1013B00029F08881998189238F3F59F4DF91CF915A
:1013C0000895CE010E94BB09CE01DF91CF910C940C
:1013D000FE05CE010E9471068111F3CF0E94F80E26
:1013E000882361F38A81882349F38091930382FDE6
:1013F000E5CF82E0DF91CF910C94A00F0E941F0FE8
:101400000C943F0F0E94E80E0C94FE090E940F0FEF
:101410000C94020A92959F70963091F058F4925F66
:101420009F70923058F4803F19F030F4883E30F4C9
:1014300081E008959A5FF4CF843FD1F380E008956E
:10144000883EB0F3813FD1F7F3CFFC0180819181D9
:101450000E94F00B0C940A0ACF93DF9300D000D0C7
:101460000F92CDB7DEB70F900F900F900F900F90A7
:10147000DF91CF910895CF93DF9300D000D000D0BB
:10148000CDB7DEB726960FB6F894DEBF0FBECDBF40
:10149000DF91CF91089508950C944B0A0E944C0A55
:1014A00060939102709392028093930290939402BE
:1014B0000C94FE0908950C944E0A0F931F9300910B
:1014C0009102109192022091930230919402602B2C
:1014D000712B822B932B1F910F910C944E0A0F931B
:1014E0001F930091910210919202209193023091EA
:1014F000940260237123822393231F910F910C94F4
:101500004E0A0F931F930091910210919202209125
:1015100093023091940260277127822793271F91AD
:101520000F910C944E0A0C9485050E94930A6093C7
:101530008D0270938E0280938F02909390020C9490
:10154000FE0960E070E0CB010C94950A0F931F93A5
:1015500041E050E060E070E08A019B0104C0000FB0
:10156000111F221F331F8A95D2F7C901B8011F919D
:101570000F910C94950A0F931F9341E050E060E0A7
:1015800070E004C0440F551F661F771F8A95D2F77D
:1015900080918D0290918E02A0918F02B091900265
:1015A0008A019B01082B192B2A2B3B2BC901B8015F
:1015B0001F910F910C94950A0F931F9341E050E0F7
:1015C00060E070E004C0440F551F661F771F8A95C6
:1015D000D2F7CB01BA0160957095809590950091F6
:1015E0008D0210918E0220918F0230919002602323
:1015F0007123822393231F910F910C94950A0F93CB
:101600001F9341E050E060E070E004C0440F551FBC
:10161000661F771F8A95D2F780918D0290918E0276
:10162000A0918F02B09190028A019B01082719278F
:101630002A273B27C901B8011F910F910C94950AE5
:101640000F931F9300918D0210918E0220918F02B3
:1016500030919002602B712B822B932B1F910F9155
:101660000C94950A0F931F9300918D0210918E0296
:1016700020918F0230919002602371238223932363
:101680001F910F910C94950A0F931F9300918D0257
:1016900010918E0220918F02309190026027712765
:1016A000822793271F910F910C94950A0895E92F93
:1016B000EE0FE90FEE0F8E0F982F977041E001C0EB
:1016C000440F9A95EAF786958695869595E0899FC9
:1016D000F0011124EB59FD4F30E020E070E0519112
:1016E000DF011197CB01022E02C0969587950A94CF
:1016F000E2F7817081958527842385278C932F5F5E
:101700003F4F2530310559F70895E92FEE0FE90FC6
:10171000EE0F8E0F982F977086958695869525E00B
:10172000829FF0011124EB59FD4F50E040E080E032
:10173000219130E0092E02C0369527950A94E2F7F0
:1017400021703327042E01C0220F0A94EAF7822B5E
:101750004F5F5F4F4530510559F70895BF92CF92C3
:10176000DF92EF92FF920F931F93CF93DF938C0141
:10177000C0908D02D0908E02E0908F02F090900287
:101780008091910290919202A0919302B091940263
:10179000C82AD92AEA2AFB2ACFE1D0E0BC2ED701F9
:1017A000C6010C2E04C0B695A795979587950A9407
:1017B000D2F780FD0EC0219788F7B12C8B2DDF91D9
:1017C000CF911F910F91FF90EF90DF90CF90BF903E
:1017D0000895B8018C2F0E945312019761F3EECF48
:1017E000CF93DF93EC010E94AE0BBE01DF91CF914E
:1017F0000C9453121F93CF93DF93EB0190916402EB
:10180000992331F0CB01DF91CF911F910C94F00B14
:10181000882379F0CB010E94AE0B182F682FCE01E0
:101820000E94570BBE01812FDF91CF911F910C9425
:101830005312CB010E94850B182FF4CF1F93CF9327
:10184000DF93C091950216E0809196028C1304C03C
:10185000DF91CF911F910895D0E01C9FF0011D9F53
:10186000F00D1124E956FD4F408151816281738151
:10187000848195810E943B0A2196C770E5CF4091F3
:10188000C7025091C8026091C9027091CA0280914A
:10189000CB029091CC020C943B0AFF920F931F93C2
:1018A000CF93DF938091CC02807FD1F48091C902E5
:1018B0008823B1F080919502109196026091C70241
:1018C0007091C802A091CA02B091CB02062F0723E3
:1018D000C0914001D091410196E0F92E181306C045
:1018E000DF91CF911F910F91FF90089590E0109795
:1018F00011F00F3F19F401968770F0CFF89E900118
:10190000F99E300D1124F901E956FD4F418147132D
:10191000F2CF40814613EFCF42814111ECCF43819A
:1019200054814A1B5B0B4C175D0728F78091CC0252
:101930008F7080618093CC02F901E456FD4F808165
:101940008F708061808387EC92E00E94D209DF91E2
:10195000CF911F910F91FF900C941E0CAF92BF92EC
:10196000CF92DF92EF92FF920F931F93CF93DF936B
:10197000CDB7DEB761970FB6F894DEBF0FBECDBF0F
:101980008C0185E0F801DE011D9601900D928A958B
:10199000E1F7F801E28087ECC82E82E0D82E609152
:1019A000CA027091CB026115710509F44DC1909185
:1019B000C7022091C802892F82238F3F09F444C1B6
:1019C00040815181A380B480F090C902F501E61BEB
:1019D000F70BBF01E0914001F0914101FF2009F4B4
:1019E00004C18091CC02382F307F6E177F0708F03A
:1019F000BDC0311179C0FE2C251323C0941321C022
:101A0000E1101FC08F7080618093CC020E943F0C58
:101A1000C6010E94D2098091CC02F80185838F2DE6
:101A200061960FB6F894DEBF0FBECDBFDF91CF91A8
:101A30001F910F91FF90EF90DF90CF90BF90AF90EC
:101A40000895AB2829F0842F85238F3F09F015C115
:101A500080E0F82FF170DF2E80FF3CC0809195026E
:101A60002091960236E0821315C04D875E878D85E2
:101A70009E850E94F00B292F22952F702230F0F0C6
:101A8000243018F59F70F1F0F8019581907FD1F422
:101A9000D12C1EC090E0389FF001399FF00D112429
:101AA000E956FD4F6181651306C06081641303C070
:101AB00062816E110FC001968770D5CF9F7011F0B3
:101AC000882331F3805E883018F3C8010E94D20960
:101AD000FD2CA5CFEE2009F4A2CF8091CC0281602D
:101AE0008093CC02F12C9BCF251314C0941312C009
:101AF000E11010C0F8018583C8010E94D20986E078
:101B0000F801A7ECB2E001900D928A95E1F70E94EE
:101B10003F0C85CFC8010E94250A882319F1EE20C9
:101B200009F18091CC02803270F02091C70230918F
:101B3000C80238872F831986BB86AA868C87CE0178
:101B400007960E94D20986E0F801A7ECB2E0019066
:101B50000D928A95E1F70E944D0C0E943F0CFF24E4
:101B6000F3945DCFC8010E94D209F9CF311113C09F
:101B70007A2DB98AA88A6E2D89890E942C0A87EC51
:101B800092E00E94D20986E0F60111928A95E9F767
:101B90000E943F0CA7CF25130FC094130DC0E11076
:101BA0000BC0F8018583C8010E94D20986E0F601C6
:101BB00011928A95E9F733CFC8010E94250A88233C
:101BC00089F2EE2079F28091CC02803208F4BBCF0A
:101BD0002091C7023091C8023A8329831B82BD82BB
:101BE000AC828E83CE010196ACCF6E177F07F8F4DE
:101BF000FE2CEE2009F4B6CF25130BC0941309C0B8
:101C000086E0F801A7ECB2E001900D928A95E1F729
:101C100006CFC8010E94250A811195CF8091CC0280
:101C200081608093CC02C8010E94D209F8CE7A2D3F
:101C3000B98AA88A6E2D89890E942C0A86E0F6014D
:101C400011928A95E9F763CFEE2009F48BCFC80192
:101C50000E94250AF82E882309F484CF86E0F80133
:101C6000A7ECB2E001900D928A95E1F787EC92E043
:101C70000E9437070E944D0C4ACF81E08E25E9CEA5
:101C80001F93CF93DF93CDB7DEB72C970FB6F894A1
:101C9000DEBF0FBECDBF4F83588769877A878B879A
:101CA0009C87CE0107960E94AE0C882369F08A8536
:101CB0009B85892B39F04F815885842F85238F3F51
:101CC00009F071C016E05FC086E0FE013796DE01C4
:101CD000119601900D928A95E1F78A859B85892B53
:101CE00089F38F81988589238F3F61F32091960234
:101CF00030E0C901019687709927409195024817F5
:101D0000190671F40E94060A10929602109295022A
:101D100086E0E7ECF2E0DF011D928A95E9F7D2CF89
:101D200096E0929FD001939FB00D1124A956BD4F0C
:101D3000FE01319601900D929A95E1F780939602FB
:101D40000E941E0CBFCF819FC001112489569D4F58
:101D50000E94AE0C8823E9F0E09195021E9FF001ED
:101D60001124E956FD4F4081518162817381848144
:101D700095810E943B0A8091950290E001968770C0
:101D800099278093950280919502909196028913EC
:101D9000DACF2C960FB6F894DEBF0FBECDBFDF9121
:101DA000CF911F91089569857A858B859C850E94C6
:101DB0003B0A88CF682F80914201909143010C9497
:101DC000BF25682F80914201909143010C94C12559
:101DD00080914201909143010C94C3258091D502DA
:101DE00085958595859508958091D502877008958C
:101DF0009091D502977081E009F480E00895809178
:101E0000E00208959091E002892B8093E00208950A
:101E100080959091E00298239093E00208951092AB
:101E2000E00208959091DF02892B8093DF020895EC
:101E300080959091DF0298239093DF02089510928D
:101E4000DF0208958091D602089508950C94250F1D
:101E50009091930392FD08C09091D602981721F0BB
:101E60008093D6020C94260F08958091D602882381
:101E700029F01092D60280E00C94260F0895CF939B
:101E8000DF93E0914201F09143018091E002808371
:101E9000E0914201F091430180819091DF02892B12
:101EA00080839091D602992381F0E0914201F091D4
:101EB00043018081892B808380914201909143016D
:101EC0000E94772581110E94350FC0914201D09167
:101ED000430148E050E06DEC72E0CE010E948D2D90
:101EE000892B69F088E0FE01ADECB2E001900D9223
:101EF0008A95E1F7CE01DF91CF910C944025DF91D7
:101F0000CF91089508950C94820F9091930392FDC0
:101F100010C098E0899F90011124622B6093D50234
:101F20000E94BB0A8091D5028595859585950C9474
:101F3000830F0C94BB0A1092D50280E00C94830F9F
:101F40009091D502809589238093D502282F277000
:101F500091F4282F082E000C330B9217130659F01A
:101F60009091930392FD07C08595859585950E9474
:101F7000DC0A0C949B0F08959091930392FB222707
:101F800020F9281769F080FB92F9909393038091D0
:101F90009203909193030E94011082E00C94A00F91
:101FA00008958091930382FB882780F991E0892727
:101FB0000C94BC0F81E00C94BC0F80E00C94BC0F1F
:101FC00090E080E00E94573021E0893E9E4F09F06A
:101FD00020E0822F089582E090E00C94493083E065
:101FE00090E00C944930CF9384E090E00E94493017
:101FF000C82F82E290E00E944930982F8C2FCF9119
:102000000895CF93C92F682F84E090E00E945D303F
:102010006C2F82E290E0CF910C945D30AB01BC015B
:102020008FE090E00C946F30AB01BC0183E190E055
:102030000C946F3060E070E0CB010C94141060E001
:1020400070E0CB010E940E100C941A1069EE7EEF26
:1020500090E080E00E947B3060E082E090E00E94AF
:102060005D3060E083E090E00E945D30109291026C
:1020700010929202109293021092940260E084E017
:1020800090E00E945D3060E082E290E00E945D306E
:1020900060E085E090E00E945D3060E086E090E0E6
:1020A0000E945D306FEF87E090E00E945D3040E07D
:1020B00050E0BA0188E090E00E946F3060E08DE06F
:1020C00090E00E945D3040E050E0BA0188E190E08D
:1020D0000E946F3060E087E190E00E945D3040E058
:1020E00050E0BA018CE190E00E946F3070E060E057
:1020F00080E290E00E947B3040E050E0BA0188E14D
:1021000090E00E946F300C941F100C942610682FE2
:102110008EE090E00C945D300E946C266093EF029C
:102120007093F0028093F1029093F2026093EB02BD
:102130007093EC028093ED029093EE02089585B7C0
:10214000806885BF85B7806885BF08950895089524
:102150000C94A71008950C94AA100E949F108BE76E
:1021600093E10E9423250E94A6100C94A8100C94C1
:102170006515089508950E94B9100C94BA100E9434
:102180007E130C94DE060E9457260E9431130E9493
:102190007F150E94B9140E94BF100E94161D80E096
:1021A0000E94741D0E94521B0E9494150C94AB1047
:1021B0009F92AF92BF92CF92DF92EF92FF920F93D6
:1021C0001F93CF93DF93CDB7DEB72A970FB6F8945E
:1021D000DEBF0FBECDBF0E94DB14C82E81110E944E
:1021E0008C1081EEA82E82E0B82E10E000E0902E38
:1021F000802F0E94A813E82EF501F1905F01F816D8
:1022000009F445C08091F30281FD0E94AE138F2D29
:102210008E25D12CFF24F394982F9F2199F10E94B1
:10222000B710882399F0DE829F82EF2081E009F4C5
:1022300080E088870E9460268160782F9A8789874E
:102240004E815F8168858A850E94F906F801EF5109
:10225000FD4F8081F826F08281E0C11001C080E04E
:102260002A960FB6F894DEBF0FBECDBFDF91CF9197
:102270001F910F91FF90EF90DF90CF90BF90AF90A4
:102280009F900895D394FF0CF6E0DF12C5CF0F5F47
:102290001F4F0A30110509F0AACF8FEF89838A8377
:1022A0001B820E9460268160782F9D838C834981E8
:1022B0005A816B818D810E94F906CECFCF930E9407
:1022C000D810C82F0E9465150E94D01B0E94F91FCC
:1022D000C1110E94C01ECF910C94EE06CF93DF93E4
:1022E0000E945712EC01811523E5920790F58115A4
:1022F00032E5930708F096C081159042C8F4C115E5
:1023000081E0D80788F4C53AD10548F4C430D10536
:1023100058F4C130D10541F0D0E0C0E005C0CE0195
:10232000805E91090897C0F7CE01DF91CF910895A3
:10233000C11591E5D90708F070C0C11520E5D20795
:1023400008F04EC0C11530E4D30730F3DF70D06A17
:10235000EBCF811546E59407F0F4C11585E5D80764
:1023600008F075C0C11594E5D90708F06BC0CE011F
:102370008370992721E030E002C0220F331F8A9535
:10238000E2F7C695C69590E2C99FE0011124C22BE1
:10239000D32BDA68C9CF81152AE5920778F4811525
:1023A00039E5930708F05EC0811548E5940708F405
:1023B000B3CFD82FCC27C06FD06AB6CF9056811537
:1023C000904208F0A9CF8D2F8F710E94EE1290E0FD
:1023D000982F882788279F719C012C2BE90140C0EA
:1023E000CE01E4E096958795EA95E1F783702C2F6E
:1023F00026952695237040E2249F90011124382BC6
:102400008C2F8370C1E0D0E002C0CC0FDD1F8A9515
:10241000E2F7C22BD32BDC6887CFDC2FCC27C16F30
:10242000D06A82CF8370992721E030E002C0220F6A
:10243000331F8A95E2F7C695C69580E2C89FE001F2
:102440001124E7CFDC2FCC27C46FD06A6DCF8C2F3F
:102450000E94EE12C82FD0E0DC2FCC27CC27DF71F2
:10246000D06262CF8F700E94EE1234E0D695C7958D
:102470003A95E1F7CF709C2FEC01D06955CF972F9B
:1024800070E026E0929F600D711D1124FB019CE31A
:10249000899FE00DF11D1124EE0FFF1FE455FF4F42
:1024A0008591949108950E943F120C946E11823888
:1024B0009105B1F1B0F48133910509F475C048F488
:1024C0008932910509F469C08A32910509F473C013
:1024D00008958533910509F459C08933910501F1B7
:1024E0000895833E9105A9F138F4803E9105F9F0F5
:1024F000823E910549F10895863E9105A9F1873EF6
:102500009105C9F1843E910519F52091930321FFAE
:102510001FC08091920384FD14C087EE90E008955F
:10252000209192032370A1F080EE90E00895209115
:10253000920320FD47C03091930330FF09C024FF70
:1025400044C090E080E004C02091920322FDF7CFC8
:1025500008952091920322FD3BC03091930330FDFA
:10256000E3CF24FFF5CFEDCF2091920323FFF0CFEF
:1025700024FDE7CFD2CF2091920323FD2CC03091D0
:10258000930331FFEECF84EE90E008952091920303
:1025900025FFDECF89E290E008952091920325FF88
:1025A000D7CF85E390E008952091920326FFD0CF06
:1025B0008AE290E008952091920326FFC9CF81E33B
:1025C00090E0089589E390E0089583EE90E0089507
:1025D00082EE90E0089586EE90E008959091920347
:1025E00092FF06C0282F28712830F9F4877F846075
:1025F00093FF06C0282F28712831F1F4877E84616B
:102600002091930320FF06C0382F38713830D9F459
:10261000877F816021FF06C0282F28712831D1F4DF
:10262000877E816194FD877E0895282F2471243050
:10263000F9F68B7F8860DCCF282F2471243101F7D5
:102640008B7E8861DDCF382F3171313019F78E7F65
:102650008860E0CF282F2171213121F78E7E88619B
:10266000E1CF10928E0310928F031092900310927C
:1026700091030895CF92DF92EF92FF926B017C015C
:102680000E94651581110EC00E946C26C61AD70AD9
:10269000E80AF90AC0928E03D0928F03E092900369
:1026A000F0929103FF90EF90DF90CF9008950F93F9
:1026B0001F930E946515882321F01F910F910C94A0
:1026C0006C260E946C2600918E0310918F0320913E
:1026D000900330919103600F711F821F931F1F9110
:1026E0000F9108950E94651581110C9460260E9437
:1026F0005713CB01089580E0089508950E94E00FDC
:10270000811102C00E9485100E94EB0F8093F3029A
:102710000E94F30F90939303809392030E947D1382
:102720000E94EF0F682F70E090E080E00E945B0A4B
:1027300060918D0270918E0280918F029091900233
:102740000C94930A08950C94A21308950C94A51365
:10275000E82FF0E0E156FC4F80810895089580EA6B
:102760008A95F1F7089500C008950C94AF13089569
:102770000C94B713EF92FF920F931F93CF93DF93B5
:1027800000D000D00F92CDB7DEB70E946515F82EAD
:102790006091A903882309F448C085E0E82E8E01E2
:1027A0000F5F1F4FF8018E2D11928A95E9F7862F42
:1027B00090E0B80181569C4F0E94A2158823F9F041
:1027C0008091940390E045E050E0B80181569C4F21
:1027D0000E948D2D21E02093F402892BD1F4F12C5D
:1027E0000E945F068F2D0F900F900F900F900F900B
:1027F000DF91CF911F910F91FF90EF9008958091FD
:10280000F402882361F3F8011192EA94E9F7109237
:10281000F402A0919403B0E0A156BC4F85E0F8010A
:1028200001900D928A95E1F7DBCF70E061567C4F05
:102830008091940390E081569C4F0E942A160E943A
:10284000B813D0CFF894E82FE295EF70F0E031A103
:10285000282F2F7081E090E001C0880F2A95EAF7B9
:10286000982F9095932391A392A1892B82A378947A
:102870000895CF93DF93CAE1D2E089918F3F11F0A1
:102880000E94221482E0CF31D807B9F7C4E1D2E028
:1028900089918F3F11F00E94221482E0CA31D8073B
:1028A000B9F7DF91CF910895CF92DF92EF92FF9227
:1028B0000F931F93CF93DF93EC01D62E062F10E0DA
:1028C000C801865E9D4F7C01FC0180818F3F09F429
:1028D00045C0F894E82FE295EF70F0E091A18F7079
:1028E00021E030E001C0220F8A95EAF7892F822B80
:1028F00081A382A12095282322A378940E94B31358
:10290000E4E1F2E04AE152E031E0C12C21912F3FB5
:1029100071F1A22FA295AF70B0E090968C9190E0EB
:102920002F7002C0959587952A95E2F780FD1FC00C
:10293000832FC82A330F4E175F0741F7F7018081B5
:102940008F3F11F00E94221461E0C11001C060E0CD
:102950008D2D0E94B513C00FD11FC882DF91CF917A
:102960001F910F91FF90EF90DF90CF90089580E03E
:10297000E0CF809144018091440195E0811190E085
:102980009093A90385E0891B809394030E943914D6
:102990008AE0EFE9F3E0DF01982F1D929A95E9F7BD
:1029A000E5E9F3E0DF011D928A95E9F785E00E94F1
:1029B0002E150C945D06EF92FF920F931F93CF9309
:1029C000DF93CDB7DEB72A970FB6F894DEBF0FBE00
:1029D000CDBF8E010F5F1F4F8AE0F80111928A95DB
:1029E000E9F7F12C6F2DC8010E945414F394F5E01F
:1029F000FF12F8CF4AE050E0B80185E993E00E9469
:102A00008D2D7C0121E0892B09F420E0E114F104F3
:102A100041F08AE0F801A5E9B3E001900D928A95B2
:102A2000E1F76091A90370E061567C4F45E085E9CC
:102A300093E00E942F1581E090E0EF2811F40E94AE
:102A4000BA132A960FB6F894DEBF0FBECDBFDF9142
:102A5000CF911F910F91FF90EF9008950895FF92ED
:102A60000F931F93CF93DF93F82E092F162FD72F95
:102A7000C42F222349F081E08093F7020E94602650
:102A80009093F6028093F5028091F7028823A1F0DB
:102A90008091F5029091F6020E947826059760F0E9
:102AA000EF2DF02FA12FBD2FCE0FDF2FD11DEC1753
:102AB000FD0741F41092F702DF91CF911F910F9122
:102AC000FF90089581918D93F2CF8091FA02811148
:102AD00007C00E94302D882351F081E08093FA02D4
:102AE00081E09091FA02913009F080E0089582E04F
:102AF0008093FA020E942B2DF3CF0C9465150E944F
:102B00007D15809344018091440166E0882349F05B
:102B100080E00E94A4180E946515882321F00C947F
:102B2000D81586E0F6CF08950E946515811102C080
:102B30000C94DA15089581E09091FB029A3008F028
:102B400080E008950F931F93CF93DF93EC018B01E7
:102B50008091FB028A30B8F4B801CE010E94281699
:102B6000C82F811122C08091FB028F3FB9F40E94CF
:102B700060269093F9028093F8028C2FDF91CF9119
:102B80001F910F9108958091F8029091F9020E948F
:102B90007826843F914000F7C0E0EFCF8F5F8093AD
:102BA000FB028A3020F7C1E0E8CF1092FB02E5CFAC
:102BB0000C94C0230C94C323DF92EF92FF920F93E7
:102BC0001F93CF93DF937901C82F880FDD0B411539
:102BD0005105A9F0FE0193E0EE0FFF1F9A95E1F772
:102BE000EB5BFE4F8181928184509D4F208130E0CC
:102BF0004217530708F49A01A9010E949A2DCE01A9
:102C00000E94AD24D82E8823D1F001151105B9F00A
:102C100083E0CC0FDD1F8A95E1F7FE01EB5BFE4FF1
:102C2000438150E00417150708F4A801CB5BDE4F81
:102C30006C817D8164507D4FC7010E949A2D8D2D3E
:102C4000DF91CF911F910F91FF90EF90DF9008954A
:102C50000C9489170C94AD170F931F93CF93DF93A8
:102C600000D000D0CDB7DEB760911B0370911C037C
:102C700080911D0390911E030E94872611E0643607
:102C800071058105910518F10E9457136E5F7F4F02
:102C90008F4F9F4F69837A838B839C8310E000E082
:102CA00030E020E044E050E0BE016F5F7F4F82E003
:102CB0000E94DC15182F882351F00E946C26609327
:102CC0001B0370931C0380931D0390931E03812F9D
:102CD0000F900F900F900F90DF91CF911F910F9158
:102CE00008950F931F93CF93DF93CDB7DEB7289747
:102CF0000FB6F894DEBF0FBECDBFCE0101960E9485
:102D0000691A188560911F03709120038091210337
:102D1000909122030E9487266436710581059105F2
:102D200010F41123C1F010E000E030E020E048E0B2
:102D300050E0BE016F5F7F4F83E00E94DC15882367
:102D400069F00E946C2660931F03709320038093A8
:102D50002103909322030E94661A81E028960FB601
:102D6000F894DEBF0FBECDBFDF91CF911F910F91C1
:102D70000895AF92BF92CF92DF92EF92FF920F939E
:102D80001F93CF93DF9300D000D000D0CDB7DEB734
:102D90007B01C0901F02D090200201E010E09E0154
:102DA0002A5F3F4F50E040E070E060E080E00E942A
:102DB000DC15182F882309F448C056018FEFA81A94
:102DC000B80A6091170370911803809119039091CC
:102DD0001A030E948726643671058105910568F102
:102DE00005E010E09E012F5F3F4F50E040E070E0B3
:102DF00060E081E00E94DC15D82E65E070E0C5013E
:102E00000E94171D11E09E81981310E01D2141F1D1
:102E10000E946C2660931703709318038093190324
:102E200090931A0385E0FE013196A2E1B3E0019090
:102E30000D928A95E1F711E013C065E070E0C501DD
:102E40000E94171D9E818913CBCF85E0F601319634
:102E5000DE01119601900D928A95E1F71111E2CFF2
:102E600085E0E2E1F3E0D70101900D928A95E1F768
:102E7000812F26960FB6F894DEBF0FBECDBFDF912F
:102E8000CF911F910F91FF90EF90DF90CF90BF9067
:102E9000AF900895AF92BF92CF92DF92EF92FF92E0
:102EA0000F931F93CF93DF937C015B016A010E9414
:102EB0009B1501E010E0882311F00AE010E0C1E06A
:102EC000D0E0F894B501C701F60109957894811115
:102ED00004C021960C171D075CF4DF91CF911F9160
:102EE0000F91FF90EF90DF90CF90BF90AF9008953B
:102EF000CC9F9001CD9F300D300D112490E080E0EB
:102F000045E34A95F1F70000019682179307C1F750
:102F1000D8CF0F931F93CF93DF93EC018B0149EB35
:102F200056E10E944A17882391F04CE256E1B8011D
:102F3000CE010E944A17882351F041E756E1B801BB
:102F4000CE01DF91CF911F910F910C944A1780E031
:102F5000DF91CF911F910F9108950F931F93CF93FE
:102F6000DF93F894C0911F02D0912002CE01019608
:102F700025E0FB01DC0101900D922A95E1F765E067
:102F800070E00E94171D88837894F8946E817F8189
:102F90008885998500910E0310910F0320911003ED
:102FA00030911103601771078207930751F0609306
:102FB0000E0370930F0380931003909311030E94EC
:102FC0003A137894F8948989882331F060E0CE012F
:102FD0000A960E949B1B198A7894DF91CF911F91CA
:102FE0000F9108950E9411280E94C3100C941D286F
:102FF0000E9421280E945E110C943B280E9400260A
:103000000E94F8270E94AD100E94F2170E94F81744
:103010000E94BB10FBCFEF92FF920F931F93CF93B1
:10302000DF93EB01E82FD11110C0442321F0F0E031
:10303000E157FD4FE4916E2F7E2F8E2FDF91CF91C0
:103040001F910F91FF90EF9008950D2F10E0282F02
:1030500030E0442329F021573D4FF901249130E01D
:10306000F6E0CF9FC0011124EFEFF0E0BF010E9416
:10307000492DAB018C2F90E0880F991FA5E5A49FE7
:10308000B001A59F700D1124861B970B982F990FE7
:10309000980FBF01601B710B629FD001639FB00D41
:1030A000729FB00D11248B2F9D9FB0011124672FAB
:1030B0007727EF01C61BD70BBE01629FE001639F1C
:1030C000D00D729FD00D11247F01E91AF108E09E06
:1030D000B001E19E700DF09E700D1124672F7727CF
:1030E000E61BF70BE29F8001E39F100DF29F100D8E
:1030F0001124E12F722F4230510599F048F4411507
:10310000510569F04130510581F0EB2F8D2F07C03B
:103110004430510569F080F046305105B1F76E2F0B
:103120008DCFE22F7B2F812FFACFE22F7D2FF7CF8C
:10313000EB2F822F712FF3CF7B2F822FED2FEFCF2D
:1031400041E00C940B180895E5E6F1E0808361837B
:1031500008950C94A018CF93DF93762FE901682F80
:10316000842F0E94A918798368838A83DF91CF9185
:103170000895493708F048E70C94AB188091AA03EA
:10318000982F9E7F61F4817082608093AA03809162
:10319000AD03893718F088E78093AD030895803137
:1031A000B0F381708E60F1CF88E090E00C945130E4
:1031B000CF92DF92EF92FF926B017C010E94BE18CA
:1031C000B701A60188E090E0FF90EF90DF90CF90EC
:1031D0000C946F30EAEAF3E083E0808311828FEF92
:1031E000828388E783831482AFE2B3E012968C91E6
:1031F0001297836012968C93608171818281938192
:103200000C94D8188091AA0380FF02C08695089577
:1032100080E008959091AE03933018F49F5F9093EF
:10322000AE03882351F06091AA037091AB038091A3
:10323000AC039091AD030C94D818089581E00C94E0
:103240000A199091AE03992319F091509093AE030F
:10325000882351F06091AA037091AB038091AC0375
:103260009091AD030C94D818089581E00C94211925
:1032700070E00C94EA1C609166018091AA0380FFC3
:103280000AC08091650123E0829FC001112481550D
:103290009C4F0C943819809167019091680123E04C
:1032A000829FF0011124E155FC4F891750F71182DC
:1032B000108212828F5F3396F8CF9091AA0390FF0D
:1032C00014C0909167012091680133E0939FF00151
:1032D0001124E155FC4F921710F00C943B19818397
:1032E000608342839F5F3396F6CF0895EF92FF92FB
:1032F0000F931F93CF93DF9300D00F92CDB7DEB71C
:10330000182FF62E042FE22E8091AA0380FF39C0D9
:10331000E82FE695F0E0EF5DFD4F908190932F034D
:103320008E7F8230C1F59E012F5F3F4F812F0E941B
:10333000B9184B8169818A810E945D198091AB0324
:10334000811308C08091AC038F1104C08091AD033C
:10335000801729F0809131038260809331031093AC
:10336000AB03F092AC030093AD03EE2051F06091FB
:10337000AA037091AB038091AC039091AD030E94BE
:10338000D8180F900F900F90DF91CF911F910F9150
:10339000FF90EF900895923089F61091AB03CECF55
:1033A000EAEAF3E09181282F438162818AE0890F64
:1033B0000C94761981E00C94D019EAEAF3E091813B
:1033C000282F4381628186EF890F0C94761981E062
:1033D0000C94DD19EAEAF3E0628121E1620F08F45E
:1033E0006FEF282F438181810C94761981E00C9432
:1033F000EA19EAEAF3E0628121E1621B08F460E085
:10340000282F438181810C94761981E00C94F9195D
:10341000EAEAF3E0438121E1420F08F44FEF282F5D
:10342000628181810C94761981E00C94081AEAEA91
:10343000F3E0438121E1421B08F440E0282F628140
:1034400081810C94761981E00C94171A20E00C9479
:103450007619EF92FF921F93CF93DF93EC0110E068
:10346000EE24EA94F12C60916901161770F00E9425
:103470003B199A818C8190FF27C08F5F8C83DF91ED
:10348000CF911F91FF90EF90089520916701422FF7
:10349000410F5527551FCA019A01220F331F280FCC
:1034A000391F21553C4F70E0C7010E945D2D962FBA
:1034B0008C814091AD036091AC03199F800D112464
:1034C0000E94B9181F5FCFCF8150D8CF109231031F
:1034D000089525E0EAEAF3E0DC0101900D922A95D7
:1034E000E1F720912F033091300340913103FC012B
:1034F0002583368347830895EFE2F3E011828281CA
:10350000846082830895EAEAF3E080818E7F80837D
:103510000E947C1AEFE2F3E08281816082832FEFC8
:1035200080E792E0215080409040E1F700C0000029
:103530000C943B190E947C1A80912D0381110AC0C2
:1035400081E080932D038091AA03817080932C03E6
:103550000C94831A0895EAEAF3E080818E7F8083D9
:1035600060817181828193810E94D8180E947C1AA7
:10357000EFE2F3E08281816082832FEF80E792E0C7
:10358000215080409040E1F700C000000C943B19AE
:103590006091AA03669570E041E050E08AE691E010
:1035A0000E94802D892B19F481E0809330030E94C2
:1035B00072139093270380932603809131038460D4
:1035C0008093310308959091AA0390FF3AC09170BF
:1035D00081112DC092609093AA0380913103816084
:1035E00080933103662351F06091AA037091AB037D
:1035F0008091AC039091AD030E94D8186091AA030A
:10360000669570E041E050E08AE691E00E94802DEE
:10361000892BA1F00E947C1A81E0809329034091BC
:10362000AD036091AC038091AB030C94261A8830F3
:1036300010F09E60D0CF880F982BCDCF0E94C81A73
:10364000EBCF0895682F9091AA03969581E0890F9A
:10365000883008F081E00C94E31A81E00C94221B7E
:10366000682F9091AA0396958FEF890F09F487E050
:103670000C94E31A81E00C94301B61E00C94E31A83
:10368000EAEAF3E080818160808386950C943D1B9B
:103690008091AA0380FD0C94AB1A0C94401B60E04F
:1036A0000C94E31A80912E03811133C00E94E00F25
:1036B000811104C00E9485100E94EA180E94D4184B
:1036C0006093AA037093AB038093AC039093AD0314
:1036D000809131038360809331036E7F61F40E9497
:1036E000EA180E94D4186093AA037093AB038093E6
:1036F000AC039093AD030E94BE180E947C1A809187
:10370000AA0380FF03C086950E944F1B81E080932F
:103710002E030895EAEAF3E0808181608083869534
:103720000C944F1B10922D0380912C0381110E9449
:103730008A1B0C94C81A1F93CF93DF93EC01162FAA
:103740008F8180FF0CC0888180FF24C08091AA03F4
:1037500081608093AA03888186950E94E31A8F81F5
:1037600081FF06C0212F4B816A8189810E947619D1
:103770008F8182FF05C08E81882379F00E94C81A4C
:103780008F8183FF03C081E080932903DF91CF9174
:103790001F9108950E94831AE2CF0E947C1AF0CFF5
:1037A000EF92FF920F931F93CF93DF93809130039B
:1037B000882309F466C080912F03E091AA03E6955F
:1037C000E81BE0932803C0EDD7E003EA18E182305C
:1037D00049F4E695F0E0E457FD4FE491CE2FD0E0B8
:1037E00009E21AE180912903882361F010922903EC
:1037F0000E947213909327038093260310922B0349
:1038000010922A030E947213E0912603F09127037D
:103810009C012E1B3F0B2F3F3F4798F5209125031E
:103820002223B1F010922503209123033091240329
:10383000821B930B8F3F9F4758F4205D3A4830938B
:103840002403209323038091310388608093310304
:10385000E0902A03F0902B03CE0FDF1FD0932703B5
:10386000C093260386E293E0F801099580912A032C
:1038700090912B03892B29F4EF2819F081E0809394
:103880002503DF91CF911F910F91FF90EF90089545
:10389000FA01811101C0FB0109940E9402198230D2
:1038A00030F00E940219873010F40C942D1B82E036
:1038B0000C943D1B1F93CF93DF93EC01FB0112810E
:1038C000111151C00E94FF0E8272CB3CFCE5DF0754
:1038D00009F473C048F5C63CECE5DE0709F459C0AD
:1038E00068F4C43C9CE5D90709F449C008F04CC011
:1038F000C33CDC4509F440C011E035C0C83C9CE540
:10390000D90709F450C008F449C0C93CFCE5DF07F9
:1039100009F44EC043E25AE164E17AE1CA3CDC4575
:1039200059F70E94481C1FC0C13DECE5DE07A0F41A
:10393000CF3CFCE5DF07B8F4CD3C9CE5D90709F4A2
:1039400041C045E359E16EE179E1CE3CDC4548F305
:1039500081E00E943D1B07C0C73DFCE5DF0740F446
:10396000C23DDC45A0F1812FDF91CF911F910895D9
:10397000CE35DD45C1F3C0CF0E94481BF4CF4AE3EA
:103980005BE16DE27BE1CDCF4DE25BE16AE37BE1A0
:10399000C8CF47EE59E16AED79E1C3CF4AED59E16D
:1039A00067EE79E1BECF45E05AE166EF79E1B9CF44
:1039B00046EF59E165E07AE1B4CF44E15AE163E2D0
:1039C0007AE1AFCF4EE159E165E379E1AACF0E94F8
:1039D0004D1CC9CF539A4BB1477F5BB15860EFB7CD
:1039E000F8949B01220F331F260F371F280F391F12
:1039F0002817390741F4EFBF8FE594E00197F1F7FD
:103A000000C000000895DC016D91CD0178E05BB944
:103A1000000000C067FF4BB9660F000000C000C087
:103A200000C04BB900C07A9591F7E2CF0895FC0130
:103A3000680F791F8FEF91E36E177F0709F40895E0
:103A40002191822728E030E087FF06C0880F892770
:103A500021503109C9F7F0CF880FFACFCF92DF920A
:103A6000EF92FF920F931F93CF93DF936C017B0133
:103A700064E670E088E70E945E22EC0197FD12C0C8
:103A800010E000E0F601E00FF11F849164E670E0C1
:103A90000E94D822EC01892B29F40F5F1F4F0E15CD
:103AA0001F0581F70E945B23CE01DF91CF911F910B
:103AB0000F91FF90EF90DF90CF9008950895E3ED80
:103AC000F3E080E092E0DF019C011D922150304044
:103AD000E1F7F093DA05E093D9058FEF9FEF90932C
:103AE0005E0380935D0308950E945E1D0E948D0514
:103AF0008093590380FD0FC080E8809358030E9493
:103B000058226DE070E086EA93E00E942E1D892B1A
:103B100021F080E0089580E2F0CF8091590363E0C6
:103B200070E081FD26C083EA93E00E942E1D892B60
:103B300081F76DE070E083E993E00E942E1D892BF0
:103B400041F70E946C26605A75418F4F9F4F6093DA
:103B5000D5057093D6058093D7059093D8050E941C
:103B60005F1D81E080935C0380935B0310925A0396
:103B7000089580EA93E0D9CF2091580336E0839FDF
:103B8000C0011124629F800D911D1124811522E036
:103B9000920714F090E080E08D529C4F9093DA05EC
:103BA0008093D90508952091D9053091DA052D5CCF
:103BB000334040915803642F70E0C9010E94492DA1
:103BC000481B463010F4240F311D211582E03807C0
:103BD00010F030E020E02D523C4F3093DA05209376
:103BE000D90508951F93CF93DF93162F8A3031F4B0
:103BF00081E0DF91CF911F910C946C1E8D3011F4F8
:103C000080E0F7CFC091D905D091DA0596E0FE01AA
:103C1000A2E3B3E001900D929A95E1F7803EC8F0DF
:103C200086E0FE0111928A95E9F711111EC0C0913C
:103C3000D905D091DA0546E050E0BE0182E393E079
:103C40000E948D2D892BF9F4DF91CF911F910C9457
:103C5000D31DF6E08F9FB00111246D547C4F46E0D8
:103C600050E0CE010E94772DE0CFE091D905F09190
:103C7000DA059F012A5F3F4F2E173F07C1F280816F
:103C800080958193F9CFC35DD340CE0125E0969511
:103C900087952A95E1F721E030E0A90102C0440FA1
:103CA000551F8A95E2F7CA0140915D0350915E036A
:103CB000842B952B259645E0D695C7954A95E1F737
:103CC00002C0220F331FCA95E2F7822B932B9093E9
:103CD0005E0380935D03B8CFCF93382FE091D90571
:103CE000F091DA05E35DF34020915803622F70E014
:103CF000CF010E94492D281B822F332369F066E0F3
:103D00000E943D2DC82FC15010F4CF91089560E05E
:103D100080E20E94F21DF7CF9F01280F311D21156F
:103D2000324018F080E0F0E0E0E08E0F9F2F911D10
:103D30008D529C4F9093DA058093D905E6CFFF9280
:103D40000F931F93CF93DF93EC01F62EFC010190AC
:103D50000020E9F78F0101501109C017D10730F099
:103D6000DF91CF911F910F91FF9008956F2D899151
:103D70000E94F21DF2CF0E949F1E81E00C946C1EE7
:103D800080915C03811103C080915B0308950E94C0
:103D90006C26605A75418F4F9F4F6093D505709385
:103DA000D6058093D7059093D80580915B03811148
:103DB000EBCF62E070E081E993E00E942E1D892B39
:103DC00019F781E080935B03DFCF2F923F925F92E0
:103DD0006F927F928F929F92AF92BF92CF92DF921B
:103DE000EF92FF920F931F93CF93DF9380915C0329
:103DF000882369F020915D0330915E032115310520
:103E000031F080915A0361E070E0882399F0DF91EE
:103E1000CF911F910F91FF90EF90DF90CF90BF90C7
:103E2000AF909F908F907F906F905F903F902F907A
:103E300008958F5F082F10E01B01082E02C0220C8E
:103E4000331C0A94E2F7A90142215321452B89F33F
:103E50009091590390FD44C08295880F807680939D
:103E60006D01980136952795369527952093700119
:103E7000815E80936E011092710124E630E047E08C
:103E800050E06BE671E088E70E940723892B09F078
:103E9000BECFA80125E0440F551F2A95E1F7809178
:103EA000590380FD2BC04D525C4F04E610E020E228
:103EB00030E060E488E70E942E23892B09F0A7CF29
:103EC0000E94C01EE101C095D09580915D03909144
:103ED0005E03C823D923D0935E03C0935D0397CFBD
:103EE000880F880F880F80936D0110927001895F91
:103EF00080936E0183E080937101BFCFE8E3F3E02C
:103F000080E2DF011D928A95E9F7ADE2B2E009E2B5
:103F100012E081E3C82E82E0D82E97E0592E772454
:103F200073948D91E80129918E01240F352F311D55
:103F30002D523C4FE82FF0E0E85CFC4F90E080E031
:103F4000652C681A872C082E01C0880C0A94EAF7A1
:103F50007901A12CE701B9907E01B820662D6A197C
:103F60006770962E062E000C770BDB2D01C0DD0F3F
:103F70009A94EAF77195619571096770772701C086
:103F8000B6946A95EAF7BD2A6081962E9B289082A6
:103F9000A39468E0A612DECF019631968830910591
:103FA00079F6CA16DB0609F0BCCF04E610E020E281
:103FB00030E048E353E07DCF80915B0390915C0358
:103FC000911103C091E089270895882369F062E088
:103FD00070E08FE893E00E942E1D892B19F08091EC
:103FE0005B03089510925B0380915B03EBCF0C940D
:103FF00097050F931F9380915C03882389F180912B
:10400000D3059091D4050E947826C29760F00E9453
:1040100060269093D4058093D30560E080E00E94F1
:10402000BC1D0E94F71F0E94E51E80915B03882340
:10403000B9F00E946C260091D5051091D60520910B
:10404000D7053091D805601B710B820B930B6F3F26
:104050007F4F8F4F9F4720F41F910F910C94DC1FCF
:104060001F910F910895CF93DF93EC01FB018281A3
:10407000882309F433C1C430FDE5DF07C0F5CB3F29
:104080009CE5D90730F49E0122503C45243131058E
:10409000B0F50E94F30F9093930380939203C13184
:1040A0008CE5D80709F4EEC008F069C0C930ECE52A
:1040B000DE0709F4D5C0C8F5C5308CE5D80709F48A
:1040C000C7C000F5C330ECE5DE0709F4B9C008F05D
:1040D000BBC0C230DC4509F4ADC080919203909121
:1040E00093030E9401100E94060A80E008C0C236B5
:1040F000EDE5DE0771F2C63AFDE5DF0751F2DF912B
:10410000CF910895809192038062C7309CE5D907D2
:1041100009F493C0809192038061C830DC4508F4B3
:104120008CC080919203806488C0809192038B7FC1
:10413000CD30FCE5DF0709F480C098F4809192034C
:104140008E7FCB309CE5D90709F477C0809192032C
:104150008C60CC30DC4508F470C0809192038D7F78
:104160006CC0809192038F7ECF30FCE5DF0709F4AD
:1041700064C008F47BC0809192038F7D5EC0CE3F07
:104180009CE5D90709F47AC050F5C531FCE5DF0795
:1041900009F486C098F480919203837FC3319CE533
:1041A000D90709F44AC008F471C00E94060A909128
:1041B0009203892F97FB87F980583FC0CC3FFCE5DD
:1041C000DF0709F449C008F055C08091930381606E
:1041D000CB3FDC4509F081CF809393037ECFC23083
:1041E000EDE5DE0709F468C0A8F4C1158DE5D80730
:1041F00009F452C0809193038360C130DD4560F3C0
:1042000080919303982F909591708E7F892B90FBCE
:1042100081F9E2CFC236EDE5DE0709F451C0C63AB6
:10422000FDE5DF0709F453C0C330DD4509F055CF84
:1042300080E043C0809192038160809392034DCFD0
:10424000809192038260F9CF809192038460F5CFD0
:10425000809192038860F1CF809193038260BCCFFC
:104260000E94060A809192038068E7CF80919203B2
:10427000877FE3CF809193038E7FAECF80919303AE
:104280008D7FAACF809192038F7BD7CF0E94060AA1
:10429000809192038F77D1CF809193038C7F9CCFB5
:1042A0008091920382FB992790F921E0922790FB5D
:1042B00082F990FB83F9C1CF81E00E9487100DCF76
:1042C00090919203892F8F7E94FF8061B6CF909159
:1042D0009203892F8E7F90FF8160AFCF81E00FCF57
:1042E000CF93DF93EB0186319C4511F50E94FF0EC1
:1042F0009A81992399F08A7A91E009F490E0909359
:104300005F03811109C089E20E94DA0E0E943F0F0B
:1043100080E0DF91CF91089585E3F6CF80915F0330
:10432000811104C089E20E94E10EF0CF85E3FBCF4A
:1043300081E0EFCF0F931F93CF93DF93C42FD22F42
:10434000FC0182818823C9F0409362030E946026A9
:10435000909361038093600380E28C0F883008F0B3
:1043600050C0C77081E001C0880FCA95EAF7DF919D
:10437000CF911F910F910C94AE071091620314130B
:1043800035C080916003909161030E947826843645
:10439000910560F5C0E2CD0F1D17B9F080E2810FE5
:1043A000883040F4177081E001C0880F1A95EAF751
:1043B0000E94B507C83048F481E09D2F977001C076
:1043C000880F9A95EAF70E94AE07802F0E94A607F1
:1043D000C830B8F4D77081E001C0880FDA95EAF7E9
:1043E000DF91CF911F910F910C94B50780E28C0F54
:1043F000883038F4C77081E001C0880FCA95EAF7A9
:10440000EFCFDF91CF911F910F9108950F939C01F2
:10441000CB01243F4CE5340759F1A8F4293DFCE5D4
:104420003F0701F12A3D4CE53407D1F1283D3C45D9
:1044300091F406E221EE41EE68ED7CE50E949A21BE
:1044400080E00F910895263FFCE53F07E9F0B0F0CA
:10445000273F3C45F9F0FC018281882339F1109215
:104460006203EFCF07E225EE45EE69ED7CE5E6CF8E
:1044700006E221EE40EE64EF7CE5E0CF07E225EEB8
:1044800044EE65EF7CE5DACF06E221EE42EE66EF20
:104490007CE5D4CF07E225EE46EE67EF7CE5CECF94
:1044A00008E221E045EE6AED7CE5C8CF81E0C9CFA6
:1044B0001092B9008CE08093B80008959F92AF925B
:1044C000BF92CF92DF92EF92FF920F931F93CF9301
:1044D000DF93B82EEB010E9460266C01EE24E3947A
:1044E000F12CC431D10560F025E0E22EF12CCF3F54
:1044F000DC0731F0CE0164E170E00E94492D7B01C0
:1045000084EAA82E94E8992E1092BC00A092BC00D8
:104510000E9460268C018091BC0087FF0DC08091B5
:10452000B900887F883039F18091B900887F803167
:1045300011F10FEF1FEF09C00E946026801B910B45
:104540008E159F0540F30EEF1FEFCF3FDC07E1F222
:10455000C6010E9478268C179D07B0F2C801DF9132
:10456000CF911F910F91FF90EF90DF90CF90BF9070
:10457000AF909F900895B092BB009092BC000E94B3
:1045800060268C018091BC0087FF0AC08091B90031
:10459000887F883111F0803461F610E000E0DECFD2
:1045A0000E946026801B910B8E159F0558F3CBCF80
:1045B0000F931F93CF93DF93EB018093BB0084E8AD
:1045C0008093BC000E9460268C018091BC0087FF14
:1045D00011C02091B900287F81E090E0283211F4C9
:1045E00090E080E0919581959109DF91CF911F91A5
:1045F0000F910895CF3FDC0741F30E946026801B96
:10460000910B8C179D0708F38EEF9FEFEECFCF92A3
:10461000DF92EF92FF920F931F93CF93DF936B0183
:104620008A017901B9010E945E22E6010C0D1D1D6F
:10463000C017D10761F424E92093BC00DF91CF912A
:104640001F910F91FF90EF90DF90CF90089597FD0D
:10465000F2CFB70189910E94D822EACFCF92DF92A0
:10466000EF92FF920F931F93CF93DF93C62F6A01B0
:104670007901B8010E945E2297FD0CC0B8018C2F11
:104680000E94D822E601EC0CFD1CCE15DF0511F0CE
:1046900097FF0CC024E92093BC00DF91CF911F91BC
:1046A0000F91FF90EF90DF90CF900895B80189911E
:1046B0000E94D822EACF84E98093BC0008958EE15D
:1046C0004A9B02C08150E1F74A9BFECF08955A9859
:1046D00080E28A95F1F75A9A0895FC013BE03A95F9
:1046E000F1F798E020E080E031E040E14A95F1F711
:1046F000880F4A9B02C08160232742E04A95F1F768
:10470000000040E14A95F1F7915079F790E19A95D0
:10471000F1F799B132E03A95F1F7000040E14A959E
:10472000F1F792FB992790F992272081920F9083BD
:104730000895EF92FF920F931F93CF93DF930F9201
:10474000CDB7DEB719828C017C01E60EF11C0E1587
:104750001F0561F481E09981911180E00F90DF9154
:10476000CF911F910F91FF90EF9008950E945F23CA
:10477000CE0101960E946D23F80181938F01E7CF4E
:10478000529A5A9A089552985A9AEA9AE9E6F0E0AB
:1047900080818F7C808308956150770B91E001C008
:1047A000990F6A95EAF720E031E0911108C02223C1
:1047B00091F05A9A80E28A95F1F75A980895492F14
:1047C000482339F05A9A232740E24A95F1F7969503
:1047D000ECCF5A98F9CF5A98EDCFFF920F931F93D1
:1047E000CF93DF93EC018C01060F111DC017D10789
:1047F00031F4DF91CF911F910F91FF900895F990BF
:104800000E94672368E08F2D0E94CC23EFCF1F9278
:104810000F920FB60F9211240F931F932F933F9374
:104820004F935F936F937F938F939F93AF93BF93B8
:10483000EF93FF93CF93DF930F92CDB7DEB719823B
:104840000E945F23CE0101960E946D23082F0695DA
:1048500006950695282F22952570902F9570290F83
:10486000922F937026952695920F9827977089819D
:10487000982B09F05CC0053008F059C080E18A959A
:10488000F1F75A9A529A82E08A95F1F700C05A9845
:1048900088E0089F80011124D801AB5BBE4F1696BB
:1048A000ED91FC9117973097A9F060911F027091DC
:1048B000200214962D913C911597260F371F1196C3
:1048C0008D919C911297680F791F13964C911397B5
:1048D0008C910995F801EB5BFE4F6381662351F0E3
:1048E00020911F023091200284819581820F931FB5
:1048F0000E94ED230E94672380E18A95F1F75A9880
:1049000052985A9A80E18A95F1F7F801EB5BFE4FD5
:104910006081662351F020911F0230912002818135
:104920009281820F931F0E9499230E945F230F9010
:10493000DF91CF91FF91EF91BF91AF919F918F91B7
:104940007F916F915F914F913F912F911F910F91A7
:104950000F900FBE0F901F9018950F931F93CF933A
:10496000DF93EC0105970CF04CC0F894529A5A98DA
:1049700085E08A95F1F700009C2F969595708C2F15
:104980008570980F892F83709695969523E0CC0FAC
:10499000DD1F2A95E1F7980F8E01092B0E946723EE
:1049A00000C068E0802F0E94CC2380E18A95F1F757
:1049B00052985A9A4A9B1EC087E090E04A991CC0C0
:1049C000FE01EB5BFE4F63816623F9F020911F022D
:1049D0003091200284819581820F931F0E94992338
:1049E000811113C0529A5A9A7894DF91CF911F91F6
:1049F0000F91089500C0DECF019729F4529A5A9A78
:104A0000789480E0F2CF00C0D9CF0E945F2380E28B
:104A10008A95F1F75A98529A80E18A95F1F7CB5B23
:104A2000DE4F6881662351F020911F0230912002F1
:104A300089819A81820F931F0E94ED230E94672330
:104A4000789481E0D2CF909333028093320208951C
:104A5000909369038093680308950E9465158111FE
:104A600003C0809163030895E0916803F0916903A6
:104A7000309721F00190F081E02D099480E00895B5
:104A8000E0916803F0916903309721F00280F3818F
:104A9000E02D09940895209166033091670328174B
:104AA000390771F09093670380936603E091680380
:104AB000F0916903309721F00680F781E02D099489
:104AC000089520916403309165032817390771F028
:104AD0009093650380936403E0916803F091690308
:104AE000309721F00084F185E02D099408959C0110
:104AF0002E5F3F4FAC01485F5F4F80E024173507C2
:104B000009F40895F90191919F019923B9F38F5FF9
:104B1000F5CF662349F0FC013296089621912617BD
:104B200029F0E817F907D1F780E0089581E00895AA
:104B30009C01FC0132969FEF80E04191461751F0B5
:104B40009F3F19F4411101C0982F8F5F8630A9F75C
:104B50009F3F09F40895290F311D97FD3A95F901FA
:104B600062830895FC01329608962191261303C0B2
:104B7000DF0111971C92E817F907B9F708950C9413
:104B800098250C94B225029626E0FC0111922A95F4
:104B9000E9F7089508950C94CA25811105C081E0B4
:104BA00080936A030C94CB2582E0FACF83E0809354
:104BB0006A030C94CB250C94CD2581E080936A0385
:104BC0000C94CB250C94DD25089508950C94E525CF
:104BD000089508950C94E425CF930E94E8250E943F
:104BE000DB140E94E925C0E08C2F0E94A8138111DC
:104BF00005C0CF5FCA30C1F7CF91089581E0FCCFE7
:104C000008951F921FB61F9211248F939F93AF9305
:104C1000BF9380916B03811113C08091DB0590914C
:104C2000DC05A091DD05B091DE054196A11DB11D09
:104C30008093DB059093DC05A093DD05B093DE0542
:104C4000BF91AF919F918F911F901FBE1F9018959C
:104C50008091E305843031F10E94C90610926B0304
:104C600088E190E020E40FB6F894A8958093600066
:104C70000FBE2093600083B7817F846083BF83B7BA
:104C8000816083BF7894889583B78E7F83BF0FB68A
:104C9000F894A895809160008861809360001092DC
:104CA00060000FBE08950E94060A0C94D10682E0AF
:104CB00084BD93E095BD9AEF97BD80936E000895F3
:104CC0002FB7F8948091DB059091DC05A091DD056C
:104CD000B091DE052FBF08952FB7F8946091DB05E2
:104CE0007091DC058091DD059091DE052FBF089560
:104CF0009C014FB7F8948091DB059091DC05A09161
:104D0000DD05B091DE054FBF821B930B0895CF9256
:104D1000DF92EF92FF922FB7F894C090DB05D0900E
:104D2000DC05E090DD05F090DE052FBFA7019601C0
:104D3000261B370B480B590BCA01B901FF90EF90A6
:104D4000DF90CF90089578941F921FB61F92112480
:104D50008F939F93AF93BF938091DB059091DC0578
:104D6000A091DD05B091DE050196A11DB11D8093D6
:104D7000DB059093DC05A093DD05B093DE05BF91C4
:104D8000AF919F918F911F901FBE1F90189587E73D
:104D900097E7909301088093000888E19AE00FB6A6
:104DA000F894A895809360000FBE90936000FFCFA9
:104DB00080917403089508950895CF93DF93EC01D3
:104DC00081E08093E9008FEF9091E800815095FD9C
:104DD00006C095ED9A95F1F700008111F5CF80910D
:104DE000E80085FF14C050E040E068E070E0CE01CC
:104DF0000E949A288091E8008E778093E80088E0EE
:104E0000FE01ACE6B3E001900D928A95E1F7DF91E7
:104E1000CF910895089508958091E205811109C008
:104E20000E942A2A0E94872A8091E200846080934F
:104E3000E20008951092E20508950C94DD2560913A
:104E4000DF0581E0611101C080E00C94D6259091CE
:104E5000E30581E0943009F080E06091DF050C9477
:104E6000DB2542E061EC81E00E94A6299091E305F8
:104E700081E0943009F080E06091DF050C94CD254D
:104E80008091E505833009F460C030F48130C9F1C8
:104E9000823009F49CC008958A3009F488C08B30B0
:104EA00009F46EC0893009F04FC08091E405813269
:104EB00009F04AC08091E8059091E905892B09F035
:104EC00043C08091E800877F8093E8008091E800EC
:104ED00082FF36C09091F3008091F200029731F486
:104EE0008091F100813011F0863021F48091F10041
:104EF000809374038091E8008B778093E8000C9492
:104F0000DA298091E405813AF9F48091E800877FFD
:104F10008093E8008091E8059091E905892B61F480
:104F200068E08CE693E070E00E94E9288091E80058
:104F30008B778093E800089560E090E080E0F3CF05
:104F40008091E3058111C2CF08958091E405813AF3
:104F5000D9F78091E8059091E905892BA9F780910F
:104F6000E800877F8093E8008091E80080FFFCCF15
:104F700080917E018093F1008091E8008E77BDCF13
:104F80008091E405813201F78091E8059091E9056F
:104F9000892BD1F68091E800877F8093E8000E94FA
:104FA000DA298091E60580937E010C94060A8091AF
:104FB000E405813249F68091E800877F8093E8001C
:104FC0000E94DA298091E705809375030895809106
:104FD000E405813A09F0B8CF8091E800877F80939B
:104FE000E8008091E80080FFFCCF80917503C2CF7C
:104FF00084B7877F84BF0FB6F894A895809160002E
:10500000886180936000109260000FBE80E890E09D
:105010000FB6F89480936100909361000FBE0C94DA
:10502000E2250E942A2A0E94872AE2EEF0E080818F
:105030008460808378940C94102D82E791E00C9426
:1050400028258091E3058530A9F48091E30585301A
:1050500011F00C9453260E9428268091E1058823A4
:10506000A1F30E94EC25882381F30E9484280E94EA
:10507000060AEBCF089508950C943E28292F332774
:1050800023303105C9F058F42130310599F122302F
:105090003105A9F190E080E030E020E01DC0213230
:1050A000310509F122323105A9F780E490E02DE4C1
:1050B00039E0672B79F710C099278130910581F08D
:1050C000009729F0029731F7E3EFF8E002C0E5E13D
:1050D000F9E0849190E09F01FA01318320830895E3
:1050E000E3E0F9E0F6CF89E090E02BE239E0672BCE
:1050F00089F6F2CF82E190E02BE339E0EDCF82E256
:1051000090E029E139E0E8CF80E189BD82E189BD05
:1051100009B400FEFDCF8091D8008F7D8093D80028
:105120008091E00082608093E0008091E00081FD4A
:10513000FCCF0895AF92BF92CF92DF92FF920F9370
:105140001F93CF93DF936C01EB018A010E94F92931
:10515000F82E811123C00115110539F0F801808165
:105160009181C81BD90BC80ED91EB12CA12C209738
:10517000A9F08091E80085FD22C08091E8008E773B
:105180008093E80001151105A1F0F801808191815B
:10519000A80EB91EB182A08285E0F82E8F2DDF9176
:1051A000CF911F910F91FF90DF90CF90BF90AF9064
:1051B00008950E94F9298823D1F2F82EEFCFF60145
:1051C00081916F018093F1002197FFEFAF1ABF0A21
:1051D000CECFFC018091EA059091EB0586179707E9
:1051E000A0F06115710529F49091E8009E779093E5
:1051F000E80090E06115710551F4911108C08091AB
:10520000E80082FF34C080E00895BC01F2CF8091B5
:10521000E3058823C1F18530C1F18091E80083FD69
:1052200030C08091E80082FDEACF8091E80080FFE5
:10523000E1CF8091F3002091F200382F61157105C4
:1052400019F02830310558F091E02830310509F087
:1052500090E02091E8002E772093E800CBCF819159
:105260008093F100615071092F5F3F4FE7CF80912C
:10527000E305882341F0853041F08091E80083FF09
:10528000BECF81E0089582E0089583E00895FC0197
:105290008091EA059091EB0586179707A0F06115BC
:1052A000710529F48091E8008E778093E80090E002
:1052B0006115710551F4911108C08091E80082FFD9
:1052C00035C080E00895BC01F2CF8091E3058823CA
:1052D000C9F18530C9F18091E80083FD31C080912A
:1052E000E80082FDEACF8091E80080FFE1CF809165
:1052F000F3002091F200382F6115710519F0283064
:10530000310558F091E02830310509F090E08091A6
:10531000E8008E778093E800CBCF84918093F100F2
:105320003196615071092F5F3F4FE6CF8091E305C1
:10533000882341F0853041F08091E80083FFBDCFA4
:1053400081E0089582E0089583E00895982F9730D2
:1053500028F08F708093E90081E008959093E90030
:10536000242F762F50E0981731F07091EC002091A7
:10537000ED005091F00021FD02C09F5FE8CF309119
:10538000EB003E7F3093EB003091ED003D7F30939A
:10539000ED003091EB0031603093EB007093EC0046
:1053A0002093ED005093F0002091EE0027FDE5CF13
:1053B00080E008958091E40587FF13C08091E800A4
:1053C00082FF06C08091E8008B778093E80004C0DC
:1053D0008091E3058111F2CF08958091E305882340
:1053E000D9F38091E80080FFF8CF8091E8008E77B4
:1053F000ECCF2091E4003091E50095E6A9012091E1
:10540000EC00822F817020FF06C08091E80080FFB1
:1054100006C080E008952091E80022FD1AC0809126
:10542000E305882389F0853089F08091EB0085FDC4
:105430000FC02091E4003091E50042175307F9F2C4
:105440009150E1F684E0089582E0089583E00895A4
:1054500081E008950E94982A0E94A02AE0EEF0E0E0
:10546000808181608083E8EDF0E080818F778083A8
:1054700019BCA7EDB0E08C918E7F8C9380818F7EDC
:1054800080831092E20508950F931F93CF93DF93CB
:105490000E94982A0E94A02AC8EDD0E088818F77C8
:1054A000888388818068888388818F7D888319BC00
:1054B0001092E3051092DF051092E1051092E005CD
:1054C00000EE10E0F80180818B7F8083888181600D
:1054D000888342E060E080E00E94A629E1EEF0E0EF
:1054E00080818E7F8083E2EEF0E080818160808326
:1054F000808188608083F80180818E7F80838881AD
:1055000080618883DF91CF911F910F910895E8ED1D
:10551000F0E080818F7E8083E7EDF0E08081816024
:10552000808384E082BF81E08093E2050C94442A6A
:10553000E8EDF0E080818E7F80831092E200089594
:105540001092DA001092E10008951F920F920FB6A8
:105550000F9211242F933F934F935F936F937F93F9
:105560008F939F93AF93BF93EF93FF938091E1004D
:1055700082FF0BC08091E20082FF07C08091E100B2
:105580008B7F8093E1000E940F2D8091DA0080FFD5
:1055900019C08091D80080FF15C08091DA008E7FFD
:1055A0008093DA008091D90080FF96C080E189BDA8
:1055B00082E189BD09B400FEFDCF81E08093E3055F
:1055C0000E940C278091E10080FF19C08091E200C9
:1055D00080FF15C08091E2008E7F8093E200809171
:1055E000E20080618093E2008091D8008062809325
:1055F000D80019BC85E08093E3050E941F278091A5
:10560000E10084FF2BC08091E20084FF27C080E18D
:1056100089BD82E189BD89B5982F917080FFFBCF4C
:105620008091D8008F7D8093D8008091E1008F7E9B
:105630008093E1008091E2008F7E8093E200809170
:10564000E20081608093E2008091DF05882309F405
:1056500049C084E08093E3050E9427278091E10000
:1056600083FF29C08091E20083FF25C08091E10083
:10567000877F8093E10082E08093E3051092DF054D
:105680008091E1008E7F8093E1008091E2008E7F27
:105690008093E2008091E20080618093E20042E02A
:1056A00060E080E00E94A6298091F00088608093ED
:1056B000F0000E941D27FF91EF91BF91AF919F9144
:1056C0008F917F916F915F914F913F912F910F90AB
:1056D0000FBE0F901F90189519BC1092E3050E9401
:1056E0001A2770CF8091E30087FD93E09093E30544
:1056F000B3CF1F920F920FB60F9211242F933F93A7
:105700004F935F936F937F938F939F93AF93BF93C9
:10571000CF93DF93EF93FF93D091E900DF708091F7
:10572000EC00C82FC17080FDC0E81092E9008091A4
:10573000F000877F8093F00078940E94BD2B109238
:10574000E9008091F00088608093F000CD2BCF704D
:10575000C093E900FF91EF91DF91CF91BF91AF919D
:105760009F918F917F916F915F914F913F912F9179
:105770000F900FBE0F901F9018951F93CF93DF933C
:10578000CDB7DEB7AA970FB6F894DEBF0FBECDBF78
:1057900084EE95E02091F100FC012193CF01F5E02A
:1057A0008C3E9F07B9F70E9440278091E80083FF55
:1057B0001EC18091E4059091E5059A3008F017C16B
:1057C000E92FF0E0EA52FF4C0C94712D803899F0EB
:1057D000823809F00CC18091E8058F70873008F09D
:1057E00006C18093E9008091EB0085FB882780F952
:1057F0001092E90006C08091E0059091E1059111B9
:1058000082609091E800977F9093E8008093F10088
:105810001092F1008091E8008E77E5C0882309F4AA
:10582000D3C0823009F0E3C08091E6058111D6C073
:105830008091E8058F702FEF280F263008F0D7C031
:105840008093E9002091EB0020FFC8C0933031F431
:105850008091EB0080628093EB00C0C09091EB00E0
:1058600090619093EB0021E030E001C0220F8A9517
:10587000EAF72093EA001092EA008091EB0088603A
:10588000EACF8111B4C01091E6051F778091E30043
:105890008078812B8093E3008091E800877F80935C
:1058A000E8000E94DA298091E80080FFFCCF809117
:1058B000E30080688093E30082E0111183E080932D
:1058C000E30595C08058823008F091C08091E605CC
:1058D0009091E7058C3D23E09207A1F583E08A8350
:1058E0008AE289834FB7F894DE01139620E03EE008
:1058F00051E2E32FF0E050935700E49120FF03C002
:10590000E295EF703F5FEF708E2F90E0EA30C0F0CD
:10591000C7968D939D932F5F243159F74FBF809188
:10592000E800877F8093E8006AE270E0CE0101968C
:105930000E94E9288091E8008B778093E80057C0A7
:10594000C096E7CF6091E8057091E905AE014F5F21
:105950005F4F0E943C28BC01892B09F448C09091FC
:10596000E800977F9093E80089819A810E944729F7
:10597000E1CF8038E1F58091E800877F8093E800EF
:105980008091DF058093F10045CF811130C0909167
:10599000E605923060F58091E800877F8093E8000B
:1059A0009093DF050E94DA298091DF05882311F0AA
:1059B00084E005C08091E30087FDFACF81E0809309
:1059C000E3050E94312713C08091E605813079F408
:1059D00081E0933009F080E08093E1051092E900C6
:1059E0008091E800877F8093E8000E94DA29809107
:1059F000E80083FF0AC08091E800877F8093E80079
:105A00008091EB0080628093EB00AA960FB6F89429
:105A1000DEBF0FBECDBFDF91CF911F9108950895D6
:105A2000CF938091E3058823A1F0C091E900CF7066
:105A30009091EC00892F817090FD80E8C82B109226
:105A4000E9008091E80083FD0E94BD2BCF70C093D8
:105A5000E900CF9108950E942A2A1092E305089543
:105A6000E8EDF0E08081806180838AE18A95F1F73A
:105A700000C08091D90081700895991B79E004C01D
:105A8000991F961708F0961B881F7A95C9F780957D
:105A90000895AA1BBB1B51E107C0AA1FBB1FA61775
:105AA000B70710F0A61BB70B881F991F5A95A9F7C7
:105AB00080959095BC01CD01089597FB072E16F4B3
:105AC000009407D077FD09D00E94492D07FC05D02E
:105AD0003EF4909581959F4F0895709561957F4F05
